:03000000020447B0
:0C044700787FE4F6D8FD75816D02048E0C
:10069E000851000D131A243444440849000A0F145B
:1006AE001C2936360C615A4E375A46287366486EE8
:1006BE005F3C08590102040820408010023E0000F1
:01007A002263
:030852008F94225E
:090830007F4F12085275928522D7
:07084100758EFF758D3F224B
:04084E00438D0422B0
:1007290075807F759B80759C7FE4F59D759E7F75AF
:10073900883F75A3E875A407F5A575A627F590F573
:08074900ABF5ACF5ADF5AE22F5
:0B0040007524021207787F030207D529
:0A082500E4FEEEC39F50030E80F8BE
:01082F0022A6
:1004D3007F64120825E580547FFF3089047E808085
:1004E300027E00EE4207EF64FE60037F00227F641A
:1004F300120825E580547FFF3089047E8080027EC8
:1005030000EE4207EF64FE60037F00227F6412085F
:1005130025E580547FFF3089047E8080027E00EED3
:100523004207EF64FE60037F00227F64120825E523
:1005330080547FFF3089047E8080027E00EE420774
:10054300EF64FE60037F0022D208D201752402C249
:0505530007C2877F01D3
:010558002280
:1007510053B87F758F5A75D94075D804758F5A1261
:10076100072912083012084175C01075C80843B82E
:07077100801200400204D3D6
:1005B700120751120664758903E4F511D3E5119406
:1005C700037480948050F212084EE51125E0240848
:1005D700F8E654F064807030851110E51124FE6050
:1005E7000F1460142402701843B88012007E801321
:1005F70043B88012039A800B43B8801206CF80035A
:0C06070012007A75110180B4051180B05A
:03004B0002061397
:10061300C0E0C0F0C083C082C0D075D000C000C0AD
:1006230001C002C003C004C005C006C0071201E236
:100633001206FE053CC3E53C941974809480400681
:10064300753C00120003D007D006D005D004D003B8
:10065300D002D001D000D0D0D082D083D0F0D0E06F
:010663003264
:03007B000208393F
:08083900C207C28775240232D8
:1007B700EFD394007480948040137DE87C03120883
:0D07C7004EED1D70011CED4C70F41F80E321
:0107D4002202
:1001E200E56D24FE601D0470300545C3E545953775
:1001F200E5366480F87480984026056DE4F545C2C2
:100202008D801D0545C3E54594237480948040107C
:10021200E4F56DF545D28D8007E4F56DD28DF54597
:10022200A28A300201B34013E542942CE5419401C5
:1002320050090542E5427002054122A28A9202302B
:100242000708756D01E4F545D28DC3E54294B4E526
:10025200419400400BD3E5429404E54194014006E9
:10026200E4F541F54222E5422547F547E5413546A9
:10027200F546E4F541F542C3E543940F748094805A
:100282005003054322E4F543E546C4F854F0C86838
:10029200F546E547C4540F48F547D394E6E546943E
:1002A20000400DD2057539D2752505752601800BE2
:1002B200C2057539A7752505752602E4F527E4F50B
:0E02C20046F547200407D2047F021207F222FD
:100664003088047F0180027F00AE077F051207B740
:100674003088047F0180027F00EF6E60027E01EE0D
:10068400600CD200752B00752C00752D5122C20010
:09069400752B00752C00752D4931
:01069D00223A
:1006FE00A28CE433FFA203E4336F6009EF24FF9270
:10070E0003E4F53A22D3E53A940174809480500ABA
:0A071E00053AE53A64017002052374
:0107280022AE
:05084800AF23E4F523DD
:01084D002288
:10079800E4F530F531F532F533F534F535F548F54E
:0F07A80022F536853937120848E4F53EF53F2231
:10007E0020070302080C7F1912004E1208488F2821
:10008E00C3EF940174809480401EAB2BAA2CA92D33
:10009E009000071202D02414FDE433FCD3EF9DEC44
:1000AE006480F8748098401F053FE53F7002053E5E
:1000BE00D394C8E53E94004013E4F53EF53FC207E5
:1000CE00C2877524028005E4F53EF53FC3E5299508
:1000DE0028F531E49400F530AF267E00FCAD3112E8
:1000EE0002FD7C007D0A1202FD12030FAA06AB0769
:1000FE00C3E5319533FFE5309532FEAD257C001218
:10010E0002FDEF2BFBEE3AFAE53325E0FFE5323345
:10011E00FEC3E5319FFFE5309EFEE5352FFFE5344A
:10012E003EFEAD271202FDEF2BF52FEE3AF52EC354
:10013E00E52F94E2E52E6480947F5006752EFF75B0
:10014E002FE2853234853335853032853133AF3702
:10015E00AE36C3EF952FFFEE952EFEC3EF9402EE53
:10016E006480948050067E007F028012AD397C0040
:10017E00D3EF9D7480F86E9840047E00AF0553B89F
:10018E007F8E368F3743B880120559E53D7044ABEC
:10019E002BAA2CA92D853882F5831202D0FFE529D2
:1001AE00D39F400415298028E529C39F501FAF40D7
:1001BE000540EF9401748094804018E53864077010
:1001CE000874032529F529800205298003753D0150
:0301DE00E4F54005
:0101E10022FB
:10055900D3E5389403748094805052A205E433752E
:10056900F006A42460F8A200E43375F003A428255A
:1005790038F8E6FFC3E5379F7480F8653698501B55
:10058900E4F5480522C3E52294C874809480401D8F
:10059900E4F522C207C287752402220548C3E5484B
:0E05A9009419748094804005E4F548F52222F0
:10039A007512FF3008057F1412004EE580547FFF66
:1003AA003089047E8080027E00EE4207E4FEEEC3BE
:1003BA00940874809480500F74592EF8E65F700484
:1003CA008E1280030E80E7D3E512948074809480A5
:1003DA00506AE51265386007E4F54485123822D37D
:1003EA00E544940374809480400320084FAF440589
:1003FA0044EF64036003200843AF387E00EF700CBB
:10040A00D208D201752402C207C28722E4F53DF55B
:10041A0048F522300120EF64074E700575290580E2
:10042A0003752902120798D207D2877F011207D5CE
:0C043A00E4F524C201222007037524020F
:010446002293
:1006CF007F0A12004EE5241460071460152402708F
:1006DF001DE5246003D38001C3928BE4F53B7524A1
:0F06EF00FF22E53B6003153B22B28B753B3222A5
:100778007F01EFD39403748094805013EF25E02415
:0F07880008F8E4F6EF25E02409F8E4F60F80E323
:01079700223F
:1007D50053B87FEF25E02408F8E6FE5480700AEF51
:0D07E50025E02408F8EE4480F643B8802299
:1007F20053B87FEF25E02408F8E6FE5480700AEF34
:0A08020025E02408F8EE4480F622F9
:10080C0053B87FE51025E02408F8E4F6E51025E060
:09081C002409F8E4F643B8802237
:10004E0053B87FE51025E02408F8E6FE54507018EA
:10005E00E51025E02408F8EE54D04420F6E51025EE
:0C006E00E02409F8A607D20943B880225C
:10000300300939C2097F01EFD3940374809480507F
:100013002BEF25E02408F8E630E51EEF25E0240960
:10002300F816EF25E02409F8E6700CEF25E0240824
:0C003300F8E654D0F68002D2090F80CB12
:01003F00229E
:100453000205B7E493A3F8E493A34003F68001F203
:1004630008DFF48029E493A3F85407240CC8C333AA
:10047300C4540F4420C8834004F456800146F6DF79
:10048300E4800B010204081020408090069EE47E65
:10049300019360BCA3FF543F30E509541FFEE4936E
:1004A300A360010ECF54C025E060A840B8E493A335
:1004B300FAE493A3F8E493A3C8C582C8CAC583CA60
:1004C300F0A3C8C582C8CAC583CADFE9DEE780BE18
:0106CE00002B
:1002D000BB010CE58229F582E5833AF583E02250E3
:1002E00006E92582F8E622BBFE06E92582F8E2222D
:0D02F000E58229F582E5833AF583E4932247
:1002FD00EF8DF0A4A8F0CF8CF0A428CE8DF0A42E15
:02030D00FE22CE
:10030F00C2D5EC30E709B2D5E4C39DFDE49CFCEE09
:10031F0030E715B2D5E4C39FFFE49EFE120345C339
:10032F00E49DFDE49CFC800312034530D507C3E434
:06033F009FFFE49EFE2278
:10034500BC000BBE0029EF8DF084FFADF022E4CC9C
:10035500F875F008EF2FFFEE33FEEC33FCEE9DEC65
:10036500984005FCEE9DFE0FD5F0E9E4CEFD22EDAB
:10037500F8F5F0EE8420D21CFEADF075F008EF2FF5
:10038500FFED33FD4007985006D5F0F222C398FDE6
:050395000FD5F0EA2283
:00000001FF
